:020000021000EC
:10B0000000400020B5B50100F5B50100F7B501001D
:10B010000000000000000000000000000000000030
:10B02000000000000000000000000000F9B5010071
:10B030000000000000000000FBB50100FDB50100AC
:10B04000FFB50100FFB50100FFB50100FFB501002C
:10B05000FFB5010000000000FFB50100FFB50100D1
:10B06000FFB50100FFB50100FFB50100FFB501000C
:10B07000FFB50100FFB50100FFB50100FFB50100FC
:10B08000FFB50100FFB50100FFB50100FFB50100EC
:10B09000FFB50100FFB50100FFB50100FFB50100DC
:10B0A000FFB50100FFB50100000000000000000036
:10B0B0000000000000000000000000000000000090
:10B0C00008B5054B054803331B1A062B03D9044B5F
:10B0D000002B00D0984708BDC0240020C0240020C9
:10B0E000000000000648074908B5091A8910CB0F6F
:10B0F0005918491003D0044B002B00D0984708BDC5
:10B10000C0240020C02400200000000010B5074C1F
:10B110002378002B09D1FFF7D3FF054B002B02D07A
:10B12000044800E000BF0123237010BDC0240020AC
:10B130000000000010BD010008B5094B002B03D032
:10B140000848094900E000BF08480368002B02D105
:10B15000FFF7C8FF08BD064B002BF9D09847F7E76B
:10B160000000000010BD0100C4240020BC24002009
:10B1700000000000144B002B00D1124B9D464022D2
:10B1800092029A1A924600218B460F461148124AA3
:10B19000121A00F04FFC0D4B002B00D098470C4BBF
:10B1A000002B00D098470020002104000D000B4820
:10B1B00000F0EAFB00F01AFC2000290000F010F873
:10B1C00000F0EAFB00000800004000200000000042
:10B1D00000000000C0240020F0240020B9B90100C4
:10B1E00080B582B000AF00F01FF800237B6000F054
:10B1F00085F9031C7B600A4A7B68101C191C00F04F
:10B2000021F900F0ABF9031C7B60064B181C0221EE
:10B2100000F018F90023181CBD4602B080BDC046DE
:10B22000D0BC0100ECBC010080B500AFA023DA0562
:10B23000EC23DB000121D150A023DB05124A0021C1
:10B2400099501249A123DB0001225242CA500F49F2
:10B25000A223DB0001225242CA500C4A0C4B182197
:10B26000D1500A4A0B4B1921D150084A0A4B0B49BD
:10B27000D150064AA023DB000421D150034B012208
:10B280001A60BD4680BDC046640700000020004033
:10B290000C050000140500002405000000502700E4
:10B2A00080B582B000AF021CFB1D1A700C4B01224E
:10B2B0009A600B49FB1D1B780A4A8B50C046084A0E
:10B2C0008E235B00D358002BF9D0054A8E235B00F8
:10B2D0000021D150024B0122DA60BD4602B080BD90
:10B2E000002000401C05000080B586B000AF7860EB
:10B2F0007B68002B03D13020FFF7D2FF5AE00023F8
:10B300007B6100233B610023FB607B68002B04DA38
:10B310000123FB607B685B427B6019E03A69131C88
:10B320009B009B185B003B617B68181C0A2100F0A6
:10B330001FFB0B1C1A1C3B699B183B617B68181C8C
:10B340000A2100F02FFA031C7B607B6901337B61CB
:10B350007B68002BE2D1FB68002B02D02D20FFF789
:10B360009FFF1AE03B69181C0A2100F001FB0B1C2F
:10B37000DAB20B23FB1830321A700B23FB181B7840
:10B38000181CFFF78DFF3B69181C0A2100F00AFA10
:10B39000031C3B617B69013B7B613B69002BE1D175
:10B3A00005E03020FFF77CFF7B69013B7B617B6917
:10B3B000002BF6D1BD4606B080BDC04680B584B036
:10B3C00000AF78600023FB600EE0FA68131C9B005E
:10B3D0009B185B00FB607B681B78303BFA68D318D6
:10B3E000FB607B6801337B607B681B78642BECD14E
:10B3F000FB68181CBD4604B080BDC04680B584B053
:10B4000000AF78607B68002B01D1012316E0002398
:10B41000FB607B68002B02DAFB680133FB6009E00C
:10B42000FB680133FB607B68181C0A2100F0BAF945
:10B43000031C7B607B68002BF2D1FB68181CBD46A7
:10B4400004B080BD0FB480B586B000AF2423FB18D4
:10B450007B603B6A3B6137E03B691B78252B05D05D
:10B460003B691B78181CFFF71BFF2AE07B681A1D3D
:10B470007A601B68FB603B6901333B613B69181CC8
:10B48000FFF79CFF031CBB60FB68181CFFF7B6FFAF
:10B49000031C7B6102E03B6901333B613B691B7824
:10B4A000642BF8D105E02020FFF7FAFE7B69013319
:10B4B0007B617A69BB689A42F5DBFB68181CFFF771
:10B4C00013FF3B6901333B613B691B78002BC3D100
:10B4D000BD4606B080BC08BC04B0184710DF7047FA
:10B4E000181CC04672DF7047181CC04673DF7047D7
:10B4F000181CC04660DF7047181CC04680B582B07B
:10B5000000AF00237B6000200021FFF7E7FF031C52
:10B510007B607B68002B01D07B6816E00D4B181C0C
:10B520000021142200F086FA0B4B3B60094B0122EC
:10B530001A72084B01221A80064A3B1C101C191C67
:10B54000FFF7D8FF031C7B607B68181CBD4602B068
:10B5500080BDC046DC2400207820002080B588B063
:10B5600000AF0023FB611B23FB180C221A70104A4A
:10B570001B23FB181B78101C191C00220023FFF74B
:10B58000B1FF3B1C181C0021182200F053FA3B1C91
:10B5900000221A703B1C802252001A823B1C181C8D
:10B5A000FFF7A4FFFB69181CBD4608B080BDC0466C
:10B5B0007820002003210A4802680A4302600948F3
:10B5C00002680A4302600849084A094B9B1A03DDD6
:10B5D000043BC858D050FBDC00F012F8FFF7CAFD5E
:10B5E00024050040540500401CBD010078200020C7
:10B5F000C0240020FEE7FEE7FEE7FEE7FEE7FEE7E9
:10B6000080B500AF00F034F8031E06D0124B134A89
:10B610001A60134B802212021A6000F069F8031EB0
:10B6200005D08023DA05C123DB000121D15000F0D1
:10B6300085F8031E0ED00B4B1B68012B07D0094B5E
:10B64000094A1A60C046074B1B68012BFBD1074B08
:10B65000C0221A60BD4680BD04050040DFFF07C060
:10B66000186C004000EC06407593000014EC064096
:10B6700080B500AF1A4B1B68FF221340012B2AD163
:10B68000184B1B680F22134025D1174B1B68F02263
:10B69000134006D1154B1B68F022134001D1012342
:10B6A0001AE0114B1B68F0221340102B06D10F4BF0
:10B6B0001B68F022134001D101230DE00A4B1B68E7
:10B6C000F0221340302B06D1084B1B68F0221340A8
:10B6D00001D1012300E00023181CBD4680BDC046F7
:10B6E000E00F00F0E40F00F0E80F00F0EC0F00F0C6
:10B6F00080B500AF0D4B1B68FF221340012B11D109
:10B700000B4B1B680F2213400CD10A4B1B68F02215
:10B710001340402B06D1084B1B68F022134001D187
:10B72000012300E00023181CBD4680BDE00F00F09F
:10B73000E40F00F0E80F00F0EC0F00F080B500AF70
:10B74000144B1B68FF221340012B1ED1124B1B68A8
:10B750000F22134019D1114B1B68F0221340A02B6C
:10B7600006D10F4B1B68F022134001D101230DE0DD
:10B770000A4B1B68F0221340D02B06D1084B1B68E4
:10B78000F022134001D1012300E00023181CBD4624
:10B7900080BDC046E00F00F0E40F00F0E80F00F0BD
:10B7A000EC0F00F003460B437FD4002243088B428A
:10B7B00074D303098B425FD3030A8B4244D3030B38
:10B7C0008B4228D3030C8B420DD3FF22090212BAFD
:10B7D000030C8B4202D31212090265D0030B8B4279
:10B7E00019D300E0090AC30B8B4201D3CB03C01A63
:10B7F0005241830B8B4201D38B03C01A5241430B3E
:10B800008B4201D34B03C01A5241030B8B4201D32D
:10B810000B03C01A5241C30A8B4201D3CB02C01A98
:10B820005241830A8B4201D38B02C01A5241430A10
:10B830008B4201D34B02C01A5241030A8B4201D3FF
:10B840000B02C01A5241CDD2C3098B4201D3CB01A6
:10B85000C01A524183098B4201D38B01C01A524155
:10B8600043098B4201D34B01C01A524103098B4259
:10B8700001D30B01C01A5241C3088B4201D3CB0044
:10B88000C01A524183088B4201D38B00C01A524127
:10B8900043088B4201D34B00C01A5241411A00D2D7
:10B8A00001465241104670475DE0CA0F00D0494240
:10B8B000031000D34042534000229C4603098B42B0
:10B8C0002DD3030A8B4212D3FC22890112BA030A38
:10B8D0008B420CD3890192118B4208D389019211BA
:10B8E0008B4204D389013AD0921100E08909C3093F
:10B8F0008B4201D3CB01C01A524183098B4201D341
:10B900008B01C01A524143098B4201D34B01C01A2B
:10B91000524103098B4201D30B01C01A5241C308A3
:10B920008B4201D3CB00C01A524183088B4201D312
:10B930008B00C01A5241D9D243088B4201D34B002D
:10B94000C01A5241411A00D20146634652415B106F
:10B95000104601D34042002B00D549427047634650
:10B960005B1000D3404201B5002000F00BF802BD8F
:10B970000029F8D003B5FFF715FF0EBC4243891A22
:10B980001847C0467047C04608B5011C0022002079
:10B99000002300F095F808BD10B50021041C00F04C
:10B9A00005F9044B1868C36B002B00D09847201C86
:10B9B00000F080F90CBD010038B5094B094CE41AC0
:10B9C000A41009D0084AA518AD00ED182B68013C59
:10B9D0009847043D002CF9D100F074F938BDC046F9
:10B9E000B8240020BC240020FFFFFF3F70B50D4E9F
:10B9F0000D4D0024AD1BAD1005D0A300F35801344C
:10BA00009847A542F9D100F057F9084E084D002497
:10BA1000AD1BAD1005D0A300F35801349847A542E3
:10BA2000F9D170BDB0240020B0240020B024002043
:10BA3000B824002070B583073FD0541E002A3BD0A5
:10BA4000CEB2031C032503E0621E002C34D0141C6C
:10BA500001335A1E16702B42F6D1032C24D9FF2530
:10BA60000D402A0215432A0415430F2C11D9261C18
:10BA7000103E3609013636011A1C9B1915605560B7
:10BA80009560D56010329342F8D10F221440032CF8
:10BA90000AD9261FB6080136B6001A1C9B1920C207
:10BAA0009342FCD103221440002C05D0C9B21C19CA
:10BAB00019700133A342FBD170BD141C031CCCE7E9
:10BAC000F8B544465F4656464D469B462F4BF0B46C
:10BAD0001C68A4235B00051CE0580E1C904600283F
:10BAE0004BD043681F2B0DDC5C1C002D21D1023391
:10BAF0009B0044601E5000203CBC90469946A246E4
:10BB0000AB46F8BD224B002B3CD0C820400000E0E3
:10BB100000BF002836D0A42200235200A158436061
:10BB20000160A05040328350043283500124002D24
:10BB3000DDD09A0091468144424688214F467A5092
:10BB4000C422520090468044424687399940126888
:10BB50008A460A4394464246614611608422494619
:10BB60005F4652008F50022DC1D1021C55468D32C6
:10BB7000FF3211680D431560B9E7201C4D30FF30CE
:10BB8000E050AEE701204042B6E7C0460CBD0100E0
:10BB90000000000008B5034B002B02D00248FFF75D
:10BBA000F3FE08BD00000000B9B90100F0B556462B
:10BBB0005F464D464446F0B40E1C3C4B87B01B68B4
:10BBC000019003934933FF330493A422039B520053
:10BBD0009F58002F4CD0049B984600239B46C423BB
:10BBE0005B009C46BC4463460293C6235B009A46B6
:10BBF0007C68BA44A5007D19013C08D526E06B1D80
:10BC0000FF331B68B34204D0043D013C1ED3002E19
:10BC1000F5D17B686A68013BA3423AD05B466B6012
:10BC2000002AF1D07B68029999460123A340096854
:10BC30000591194223D190477B684B45C5D14346B6
:10BC40001B68BB42C1D1043D013CE0D2184B002B24
:10BC50000ED07B68002B23D13B68002B24D04246BA
:10BC6000381C136000E000BF43461F68002FB6D1A8
:10BC700007B03CBC90469946A246AB46F0BD514643
:10BC80000968194207D12B1C843319680198904721
:10BC9000D2E77C60C4E72B1C843318689047CBE75D
:10BCA0003B68B8461F1CE1E70023FAE70CBD010022
:10BCB00000000000FEE7C046F8B5C046F8BC08BC6E
:10BCC0009E467047F8B5C046F8BC08BC9E46704713
:10BCD000424C4520456E61626C65206572726F72E0
:10BCE00020636F64653A2025640A0D004D79206653
:10BCF00061766F72697465206E756D626572206918
:10BD0000732025640A0A00004300000088200020F8
:04BD1000000000002F
:08BD140060F4FF7F0100000054
:10BD1C000B0948454C474148414E4E41000000003C
:10BD2C000000000074230020DC23002044240020A9
:10BD3C0000000000000000000000000000000000F7
:10BD4C0000000000000000000000000000000000E7
:10BD5C000000000008BD0100000000000000000011
:10BD6C0000000000000000000000000000000000C7
:10BD7C0000000000000000000000000000000000B7
:10BD8C0000000000000000000000000000000000A7
:10BD9C000000000000000000000000000000000097
:10BDAC000000000000000000000000000000000087
:10BDBC000000000000000000000000000000000077
:10BDCC000000000000000000010000000000000066
:10BDDC000E33CDAB34126DE6ECDE05000B0000002B
:10BDEC000000000000000000000000000000000047
:10BDFC000000000000000000000000000000000037
:10BE0C000000000000000000000000000000000026
:10BE1C000000000000000000000000000000000016
:10C14C00000000000000000095BB010039B10100A7
:08C15C000DB10100000000001C
:040000031000B5B57F
:00000001FF
